{
  "_format": "hh-sol-artifact-1",
  "contractName": "StackUp",
  "sourceName": "contracts/Stackup.sol",
  "abi": [
    {
      "inputs": [],
      "stateMutability": "nonpayable",
      "type": "constructor"
    },
    {
      "inputs": [],
      "name": "admin",
      "outputs": [
        {
          "internalType": "address",
          "name": "",
          "type": "address"
        }
      ],
      "stateMutability": "view",
      "type": "function"
    },
    {
      "inputs": [
        {
          "internalType": "uint256",
          "name": "",
          "type": "uint256"
        }
      ],
      "name": "campaigns",
      "outputs": [
        {
          "internalType": "uint256",
          "name": "campaignId",
          "type": "uint256"
        },
        {
          "internalType": "string",
          "name": "title",
          "type": "string"
        }
      ],
      "stateMutability": "view",
      "type": "function"
    },
    {
      "inputs": [
        {
          "internalType": "string",
          "name": "title_",
          "type": "string"
        },
        {
          "internalType": "uint256[]",
          "name": "questIds_",
          "type": "uint256[]"
        }
      ],
      "name": "createCampaign",
      "outputs": [],
      "stateMutability": "nonpayable",
      "type": "function"
    },
    {
      "inputs": [
        {
          "internalType": "string",
          "name": "title_",
          "type": "string"
        },
        {
          "internalType": "uint8",
          "name": "reward_",
          "type": "uint8"
        },
        {
          "internalType": "uint256",
          "name": "numberOfRewards_",
          "type": "uint256"
        },
        {
          "internalType": "uint256",
          "name": "startTime_",
          "type": "uint256"
        },
        {
          "internalType": "uint256",
          "name": "endTime_",
          "type": "uint256"
        }
      ],
      "name": "createQuest",
      "outputs": [],
      "stateMutability": "nonpayable",
      "type": "function"
    },
    {
      "inputs": [
        {
          "internalType": "uint256",
          "name": "campaignId",
          "type": "uint256"
        }
      ],
      "name": "deleteCampaign",
      "outputs": [],
      "stateMutability": "nonpayable",
      "type": "function"
    },
    {
      "inputs": [
        {
          "internalType": "uint256",
          "name": "questId",
          "type": "uint256"
        }
      ],
      "name": "deleteQuest",
      "outputs": [],
      "stateMutability": "nonpayable",
      "type": "function"
    },
    {
      "inputs": [
        {
          "internalType": "uint256",
          "name": "campaignId",
          "type": "uint256"
        },
        {
          "internalType": "string",
          "name": "title_",
          "type": "string"
        },
        {
          "internalType": "uint256[]",
          "name": "questIds_",
          "type": "uint256[]"
        }
      ],
      "name": "editCampaign",
      "outputs": [],
      "stateMutability": "nonpayable",
      "type": "function"
    },
    {
      "inputs": [
        {
          "internalType": "uint256",
          "name": "questId",
          "type": "uint256"
        },
        {
          "internalType": "string",
          "name": "title_",
          "type": "string"
        },
        {
          "internalType": "uint8",
          "name": "reward_",
          "type": "uint8"
        },
        {
          "internalType": "uint256",
          "name": "numberOfRewards_",
          "type": "uint256"
        },
        {
          "internalType": "uint256",
          "name": "startTime_",
          "type": "uint256"
        },
        {
          "internalType": "uint256",
          "name": "endTime_",
          "type": "uint256"
        }
      ],
      "name": "editQuest",
      "outputs": [],
      "stateMutability": "nonpayable",
      "type": "function"
    },
    {
      "inputs": [
        {
          "internalType": "uint256",
          "name": "questId",
          "type": "uint256"
        }
      ],
      "name": "joinQuest",
      "outputs": [],
      "stateMutability": "nonpayable",
      "type": "function"
    },
    {
      "inputs": [],
      "name": "nextCampaignId",
      "outputs": [
        {
          "internalType": "uint256",
          "name": "",
          "type": "uint256"
        }
      ],
      "stateMutability": "view",
      "type": "function"
    },
    {
      "inputs": [],
      "name": "nextQuestId",
      "outputs": [
        {
          "internalType": "uint256",
          "name": "",
          "type": "uint256"
        }
      ],
      "stateMutability": "view",
      "type": "function"
    },
    {
      "inputs": [
        {
          "internalType": "address",
          "name": "",
          "type": "address"
        },
        {
          "internalType": "uint256",
          "name": "",
          "type": "uint256"
        }
      ],
      "name": "playerQuestStatuses",
      "outputs": [
        {
          "internalType": "enum StackUp.PlayerQuestStatus",
          "name": "",
          "type": "uint8"
        }
      ],
      "stateMutability": "view",
      "type": "function"
    },
    {
      "inputs": [
        {
          "internalType": "uint256",
          "name": "",
          "type": "uint256"
        }
      ],
      "name": "quests",
      "outputs": [
        {
          "internalType": "uint256",
          "name": "questId",
          "type": "uint256"
        },
        {
          "internalType": "uint256",
          "name": "numberOfPlayers",
          "type": "uint256"
        },
        {
          "internalType": "string",
          "name": "title",
          "type": "string"
        },
        {
          "internalType": "uint8",
          "name": "reward",
          "type": "uint8"
        },
        {
          "internalType": "uint256",
          "name": "numberOfRewards",
          "type": "uint256"
        },
        {
          "internalType": "uint256",
          "name": "startTime",
          "type": "uint256"
        },
        {
          "internalType": "uint256",
          "name": "endTime",
          "type": "uint256"
        },
        {
          "internalType": "enum StackUp.QuestStatus",
          "name": "status",
          "type": "uint8"
        }
      ],
      "stateMutability": "view",
      "type": "function"
    },
    {
      "inputs": [
        {
          "internalType": "uint256",
          "name": "questId",
          "type": "uint256"
        },
        {
          "internalType": "address",
          "name": "player",
          "type": "address"
        },
        {
          "internalType": "bool",
          "name": "approved",
          "type": "bool"
        }
      ],
      "name": "reviewQuestSubmission",
      "outputs": [],
      "stateMutability": "nonpayable",
      "type": "function"
    },
    {
      "inputs": [
        {
          "internalType": "uint256",
          "name": "questId",
          "type": "uint256"
        }
      ],
      "name": "submitQuest",
      "outputs": [],
      "stateMutability": "nonpayable",
      "type": "function"
    }
  ],
  "bytecode": "0x608060405234801561001057600080fd5b50336000806101000a81548173ffffffffffffffffffffffffffffffffffffffff021916908373ffffffffffffffffffffffffffffffffffffffff1602179055506124ab806100606000396000f3fe608060405234801561001057600080fd5b50600436106100f55760003560e01c806378ff2bda11610097578063ad1c8a2411610066578063ad1c8a2414610259578063d638c98314610275578063e085f98014610293578063f851a440146102ca576100f5565b806378ff2bda146101d35780637903a756146101ef57806382d705951461020d57806399f7358c14610229576100f5565b8063402702e7116100d3578063402702e7146101635780636f4de5941461017f5780637304b78e1461019b57806375970193146101b7576100f5565b8063103d36b8146100fa578063141961bc146101165780631b8c9ef014610147575b600080fd5b610114600480360381019061010f9190611519565b6102e8565b005b610130600480360381019061012b9190611519565b61044a565b60405161013e9291906115e5565b60405180910390f35b610161600480360381019061015c91906116d0565b6104f6565b005b61017d6004803603810190610178919061179e565b610626565b005b610199600480360381019061019491906118e3565b61077c565b005b6101b560048036038101906101b09190611936565b6109b7565b005b6101d160048036038101906101cc9190611519565b610bb1565b005b6101ed60048036038101906101e89190611519565b610cdb565b005b6101f7610f36565b60405161020491906119d0565b60405180910390f35b610227600480360381019061022291906119eb565b610f3c565b005b610243600480360381019061023e9190611a6c565b6110e3565b6040516102509190611b23565b60405180910390f35b610273600480360381019061026e9190611519565b611112565b005b61027d6112ad565b60405161028a91906119d0565b60405180910390f35b6102ad60048036038101906102a89190611519565b6112b3565b6040516102c1989796959493929190611b95565b60405180910390f35b6102d261139d565b6040516102df9190611c29565b60405180910390f35b60008054906101000a900473ffffffffffffffffffffffffffffffffffffffff1673ffffffffffffffffffffffffffffffffffffffff163373ffffffffffffffffffffffffffffffffffffffff1614610376576040517f08c379a000000000000000000000000000000000000000000000000000000000815260040161036d90611cb6565b60405180910390fd5b8060006003600083815260200190815260200160002060000154036103d0576040517f08c379a00000000000000000000000000000000000000000000000000000000081526004016103c790611d22565b60405180910390fd5b60036000838152602001908152602001600020600080820160009055600182016000905560028201600061040491906113c1565b6003820160006101000a81549060ff02191690556004820160009055600582016000905560068201600090556007820160006101000a81549060ff021916905550505050565b600560205280600052604060002060009150905080600001549080600101805461047390611d71565b80601f016020809104026020016040519081016040528092919081815260200182805461049f90611d71565b80156104ec5780601f106104c1576101008083540402835291602001916104ec565b820191906000526020600020905b8154815290600101906020018083116104cf57829003601f168201915b5050505050905082565b60008054906101000a900473ffffffffffffffffffffffffffffffffffffffff1673ffffffffffffffffffffffffffffffffffffffff163373ffffffffffffffffffffffffffffffffffffffff1614610584576040517f08c379a000000000000000000000000000000000000000000000000000000000815260040161057b90611cb6565b60405180910390fd5b8460006005600083815260200190815260200160002060000154036105de576040517f08c379a00000000000000000000000000000000000000000000000000000000081526004016105d590611dee565b60405180910390fd5b60006005600088815260200190815260200160002090508585826001019182610608929190611ff4565b50838382600201919061061c929190611401565b5050505050505050565b60008054906101000a900473ffffffffffffffffffffffffffffffffffffffff1673ffffffffffffffffffffffffffffffffffffffff163373ffffffffffffffffffffffffffffffffffffffff16146106b4576040517f08c379a00000000000000000000000000000000000000000000000000000000081526004016106ab90611cb6565b60405180910390fd5b86600060036000838152602001908152602001600020600001540361070e576040517f08c379a000000000000000000000000000000000000000000000000000000000815260040161070590611d22565b60405180910390fd5b6000600360008a815260200190815260200160002090508787826002019182610738929190611ff4565b50858160030160006101000a81548160ff021916908360ff160217905550848160040181905550838160050181905550828160060181905550505050505050505050565b60008054906101000a900473ffffffffffffffffffffffffffffffffffffffff1673ffffffffffffffffffffffffffffffffffffffff163373ffffffffffffffffffffffffffffffffffffffff161461080a576040517f08c379a000000000000000000000000000000000000000000000000000000000815260040161080190611cb6565b60405180910390fd5b826000600360008381526020019081526020016000206000015403610864576040517f08c379a000000000000000000000000000000000000000000000000000000000815260040161085b90611d22565b60405180910390fd5b60028081111561087757610876611aac565b5b600460008573ffffffffffffffffffffffffffffffffffffffff1673ffffffffffffffffffffffffffffffffffffffff168152602001908152602001600020600086815260200190815260200160002060009054906101000a900460ff1660028111156108e7576108e6611aac565b5b14610927576040517f08c379a000000000000000000000000000000000000000000000000000000000815260040161091e90612136565b60405180910390fd5b81156109715760016003600086815260200190815260200160002060070160006101000a81548160ff0219169083600281111561096757610966611aac565b5b02179055506109b1565b60026003600086815260200190815260200160002060070160006101000a81548160ff021916908360028111156109ab576109aa611aac565b5b02179055505b50505050565b60008054906101000a900473ffffffffffffffffffffffffffffffffffffffff1673ffffffffffffffffffffffffffffffffffffffff163373ffffffffffffffffffffffffffffffffffffffff1614610a45576040517f08c379a0000000000000000000000000000000000000000000000000000000008152600401610a3c90611cb6565b60405180910390fd5b600060015490506040518061010001604052808281526020016000815260200188888080601f016020809104026020016040519081016040528093929190818152602001838380828437600081840152601f19601f8201169050808301925050505050505081526020018660ff16815260200185815260200184815260200183815260200160006002811115610ade57610add611aac565b5b8152506003600083815260200190815260200160002060008201518160000155602082015181600101556040820151816002019081610b1d9190612156565b5060608201518160030160006101000a81548160ff021916908360ff1602179055506080820151816004015560a0820151816005015560c0820151816006015560e08201518160070160006101000a81548160ff02191690836002811115610b8857610b87611aac565b5b021790555090505060016000815480929190610ba390612257565b919050555050505050505050565b60008054906101000a900473ffffffffffffffffffffffffffffffffffffffff1673ffffffffffffffffffffffffffffffffffffffff163373ffffffffffffffffffffffffffffffffffffffff1614610c3f576040517f08c379a0000000000000000000000000000000000000000000000000000000008152600401610c3690611cb6565b60405180910390fd5b806000600560008381526020019081526020016000206000015403610c99576040517f08c379a0000000000000000000000000000000000000000000000000000000008152600401610c9090611dee565b60405180910390fd5b60056000838152602001908152602001600020600080820160009055600182016000610cc591906113c1565b600282016000610cd5919061144e565b50505050565b806000600360008381526020019081526020016000206000015403610d35576040517f08c379a0000000000000000000000000000000000000000000000000000000008152600401610d2c90611d22565b60405180910390fd5b60006002811115610d4957610d48611aac565b5b600460003373ffffffffffffffffffffffffffffffffffffffff1673ffffffffffffffffffffffffffffffffffffffff168152602001908152602001600020600084815260200190815260200160002060009054906101000a900460ff166002811115610db957610db8611aac565b5b14610df9576040517f08c379a0000000000000000000000000000000000000000000000000000000008152600401610df090612311565b60405180910390fd5b60006003600084815260200190815260200160002090508060050154421015610e57576040517f08c379a0000000000000000000000000000000000000000000000000000000008152600401610e4e9061237d565b60405180910390fd5b8060060154421115610e9e576040517f08c379a0000000000000000000000000000000000000000000000000000000008152600401610e95906123e9565b60405180910390fd5b6001600460003373ffffffffffffffffffffffffffffffffffffffff1673ffffffffffffffffffffffffffffffffffffffff168152602001908152602001600020600085815260200190815260200160002060006101000a81548160ff02191690836002811115610f1257610f11611aac565b5b0217905550806001016000815480929190610f2c90612257565b9190505550505050565b60025481565b60008054906101000a900473ffffffffffffffffffffffffffffffffffffffff1673ffffffffffffffffffffffffffffffffffffffff163373ffffffffffffffffffffffffffffffffffffffff1614610fca576040517f08c379a0000000000000000000000000000000000000000000000000000000008152600401610fc190611cb6565b60405180910390fd5b60006002549050604051806060016040528082815260200186868080601f016020809104026020016040519081016040528093929190818152602001838380828437600081840152601f19601f820116905080830192505050505050508152602001848480806020026020016040519081016040528093929190818152602001838360200280828437600081840152601f19601f82011690508083019250505050505050815250600560008381526020019081526020016000206000820151816000015560208201518160010190816110a39190612156565b5060408201518160020190805190602001906110c092919061146f565b50905050600260008154809291906110d790612257565b91905055505050505050565b60046020528160005260406000206020528060005260406000206000915091509054906101000a900460ff1681565b80600060036000838152602001908152602001600020600001540361116c576040517f08c379a000000000000000000000000000000000000000000000000000000000815260040161116390611d22565b60405180910390fd5b600160028111156111805761117f611aac565b5b600460003373ffffffffffffffffffffffffffffffffffffffff1673ffffffffffffffffffffffffffffffffffffffff168152602001908152602001600020600084815260200190815260200160002060009054906101000a900460ff1660028111156111f0576111ef611aac565b5b14611230576040517f08c379a000000000000000000000000000000000000000000000000000000000815260040161122790612455565b60405180910390fd5b6002600460003373ffffffffffffffffffffffffffffffffffffffff1673ffffffffffffffffffffffffffffffffffffffff168152602001908152602001600020600084815260200190815260200160002060006101000a81548160ff021916908360028111156112a4576112a3611aac565b5b02179055505050565b60015481565b60036020528060005260406000206000915090508060000154908060010154908060020180546112e290611d71565b80601f016020809104026020016040519081016040528092919081815260200182805461130e90611d71565b801561135b5780601f106113305761010080835404028352916020019161135b565b820191906000526020600020905b81548152906001019060200180831161133e57829003601f168201915b5050505050908060030160009054906101000a900460ff16908060040154908060050154908060060154908060070160009054906101000a900460ff16905088565b60008054906101000a900473ffffffffffffffffffffffffffffffffffffffff1681565b5080546113cd90611d71565b6000825580601f106113df57506113fe565b601f0160209004906000526020600020908101906113fd91906114bc565b5b50565b82805482825590600052602060002090810192821561143d579160200282015b8281111561143c578235825591602001919060010190611421565b5b50905061144a91906114bc565b5090565b508054600082559060005260206000209081019061146c91906114bc565b50565b8280548282559060005260206000209081019282156114ab579160200282015b828111156114aa57825182559160200191906001019061148f565b5b5090506114b891906114bc565b5090565b5b808211156114d55760008160009055506001016114bd565b5090565b600080fd5b600080fd5b6000819050919050565b6114f6816114e3565b811461150157600080fd5b50565b600081359050611513816114ed565b92915050565b60006020828403121561152f5761152e6114d9565b5b600061153d84828501611504565b91505092915050565b61154f816114e3565b82525050565b600081519050919050565b600082825260208201905092915050565b60005b8381101561158f578082015181840152602081019050611574565b60008484015250505050565b6000601f19601f8301169050919050565b60006115b782611555565b6115c18185611560565b93506115d1818560208601611571565b6115da8161159b565b840191505092915050565b60006040820190506115fa6000830185611546565b818103602083015261160c81846115ac565b90509392505050565b600080fd5b600080fd5b600080fd5b60008083601f84011261163a57611639611615565b5b8235905067ffffffffffffffff8111156116575761165661161a565b5b6020830191508360018202830111156116735761167261161f565b5b9250929050565b60008083601f8401126116905761168f611615565b5b8235905067ffffffffffffffff8111156116ad576116ac61161a565b5b6020830191508360208202830111156116c9576116c861161f565b5b9250929050565b6000806000806000606086880312156116ec576116eb6114d9565b5b60006116fa88828901611504565b955050602086013567ffffffffffffffff81111561171b5761171a6114de565b5b61172788828901611624565b9450945050604086013567ffffffffffffffff81111561174a576117496114de565b5b6117568882890161167a565b92509250509295509295909350565b600060ff82169050919050565b61177b81611765565b811461178657600080fd5b50565b60008135905061179881611772565b92915050565b600080600080600080600060c0888a0312156117bd576117bc6114d9565b5b60006117cb8a828b01611504565b975050602088013567ffffffffffffffff8111156117ec576117eb6114de565b5b6117f88a828b01611624565b9650965050604061180b8a828b01611789565b945050606061181c8a828b01611504565b935050608061182d8a828b01611504565b92505060a061183e8a828b01611504565b91505092959891949750929550565b600073ffffffffffffffffffffffffffffffffffffffff82169050919050565b60006118788261184d565b9050919050565b6118888161186d565b811461189357600080fd5b50565b6000813590506118a58161187f565b92915050565b60008115159050919050565b6118c0816118ab565b81146118cb57600080fd5b50565b6000813590506118dd816118b7565b92915050565b6000806000606084860312156118fc576118fb6114d9565b5b600061190a86828701611504565b935050602061191b86828701611896565b925050604061192c868287016118ce565b9150509250925092565b60008060008060008060a08789031215611953576119526114d9565b5b600087013567ffffffffffffffff811115611971576119706114de565b5b61197d89828a01611624565b9650965050602061199089828a01611789565b94505060406119a189828a01611504565b93505060606119b289828a01611504565b92505060806119c389828a01611504565b9150509295509295509295565b60006020820190506119e56000830184611546565b92915050565b60008060008060408587031215611a0557611a046114d9565b5b600085013567ffffffffffffffff811115611a2357611a226114de565b5b611a2f87828801611624565b9450945050602085013567ffffffffffffffff811115611a5257611a516114de565b5b611a5e8782880161167a565b925092505092959194509250565b60008060408385031215611a8357611a826114d9565b5b6000611a9185828601611896565b9250506020611aa285828601611504565b9150509250929050565b7f4e487b7100000000000000000000000000000000000000000000000000000000600052602160045260246000fd5b60038110611aec57611aeb611aac565b5b50565b6000819050611afd82611adb565b919050565b6000611b0d82611aef565b9050919050565b611b1d81611b02565b82525050565b6000602082019050611b386000830184611b14565b92915050565b611b4781611765565b82525050565b60038110611b5e57611b5d611aac565b5b50565b6000819050611b6f82611b4d565b919050565b6000611b7f82611b61565b9050919050565b611b8f81611b74565b82525050565b600061010082019050611bab600083018b611546565b611bb8602083018a611546565b8181036040830152611bca81896115ac565b9050611bd96060830188611b3e565b611be66080830187611546565b611bf360a0830186611546565b611c0060c0830185611546565b611c0d60e0830184611b86565b9998505050505050505050565b611c238161186d565b82525050565b6000602082019050611c3e6000830184611c1a565b92915050565b7f4f6e6c79207468652061646d696e2063616e20706572666f726d20746869732060008201527f616374696f6e0000000000000000000000000000000000000000000000000000602082015250565b6000611ca0602683611560565b9150611cab82611c44565b604082019050919050565b60006020820190508181036000830152611ccf81611c93565b9050919050565b7f517565737420646f6573206e6f74206578697374000000000000000000000000600082015250565b6000611d0c601483611560565b9150611d1782611cd6565b602082019050919050565b60006020820190508181036000830152611d3b81611cff565b9050919050565b7f4e487b7100000000000000000000000000000000000000000000000000000000600052602260045260246000fd5b60006002820490506001821680611d8957607f821691505b602082108103611d9c57611d9b611d42565b5b50919050565b7f43616d706169676e20646f6573206e6f74206578697374000000000000000000600082015250565b6000611dd8601783611560565b9150611de382611da2565b602082019050919050565b60006020820190508181036000830152611e0781611dcb565b9050919050565b600082905092915050565b7f4e487b7100000000000000000000000000000000000000000000000000000000600052604160045260246000fd5b60008190508160005260206000209050919050565b60006020601f8301049050919050565b600082821b905092915050565b600060088302611eaa7fffffffffffffffffffffffffffffffffffffffffffffffffffffffffffffffff82611e6d565b611eb48683611e6d565b95508019841693508086168417925050509392505050565b6000819050919050565b6000611ef1611eec611ee7846114e3565b611ecc565b6114e3565b9050919050565b6000819050919050565b611f0b83611ed6565b611f1f611f1782611ef8565b848454611e7a565b825550505050565b600090565b611f34611f27565b611f3f818484611f02565b505050565b5b81811015611f6357611f58600082611f2c565b600181019050611f45565b5050565b601f821115611fa857611f7981611e48565b611f8284611e5d565b81016020851015611f91578190505b611fa5611f9d85611e5d565b830182611f44565b50505b505050565b600082821c905092915050565b6000611fcb60001984600802611fad565b1980831691505092915050565b6000611fe48383611fba565b9150826002028217905092915050565b611ffe8383611e0e565b67ffffffffffffffff81111561201757612016611e19565b5b6120218254611d71565b61202c828285611f67565b6000601f83116001811461205b5760008415612049578287013590505b6120538582611fd8565b8655506120bb565b601f19841661206986611e48565b60005b828110156120915784890135825560018201915060208501945060208101905061206c565b868310156120ae57848901356120aa601f891682611fba565b8355505b6001600288020188555050505b50505050505050565b7f506c6179657220686173206e6f74207375626d6974746564207468697320717560008201527f6573740000000000000000000000000000000000000000000000000000000000602082015250565b6000612120602383611560565b915061212b826120c4565b604082019050919050565b6000602082019050818103600083015261214f81612113565b9050919050565b61215f82611555565b67ffffffffffffffff81111561217857612177611e19565b5b6121828254611d71565b61218d828285611f67565b600060209050601f8311600181146121c057600084156121ae578287015190505b6121b88582611fd8565b865550612220565b601f1984166121ce86611e48565b60005b828110156121f6578489015182556001820191506020850194506020810190506121d1565b86831015612213578489015161220f601f891682611fba565b8355505b6001600288020188555050505b505050505050565b7f4e487b7100000000000000000000000000000000000000000000000000000000600052601160045260246000fd5b6000612262826114e3565b91507fffffffffffffffffffffffffffffffffffffffffffffffffffffffffffffffff820361229457612293612228565b5b600182019050919050565b7f506c617965722068617320616c7265616479206a6f696e65642f7375626d697460008201527f7465642074686973207175657374000000000000000000000000000000000000602082015250565b60006122fb602e83611560565b91506123068261229f565b604082019050919050565b6000602082019050818103600083015261232a816122ee565b9050919050565b7f517565737420686173206e6f7420737461727465642079657400000000000000600082015250565b6000612367601983611560565b915061237282612331565b602082019050919050565b600060208201905081810360008301526123968161235a565b9050919050565b7f51756573742068617320616c726561647920656e646564000000000000000000600082015250565b60006123d3601783611560565b91506123de8261239d565b602082019050919050565b60006020820190508181036000830152612402816123c6565b9050919050565b7f506c61796572206d757374206669727374206a6f696e20746865207175657374600082015250565b600061243f602083611560565b915061244a82612409565b602082019050919050565b6000602082019050818103600083015261246e81612432565b905091905056fea2646970667358221220b9ed943f5ae2dfe54c98bd2d034ac949d85e620fa11772ef3237b682eefe2f0664736f6c63430008120033",
  "linkReferences": {},
  "deployedLinkReferences": {}
}